:020000040000FA
:100000000C9463010C948B010C948B010C941208DA
:100010000C9412080C9412080C948B010C948B0114
:100020000C948B010C948B010C948B010C948B0120
:100030000C948B010C948B010C948B010C948B0110
:100040000C94C8070C948B010C9496070C947007C1
:100050000C948B010C948B010C948B010C948B01F0
:100060000C948B010C948B010000000024002700ED
:100070002A0000000008000201000003040700003D
:10008000000000000000000005800F800A001B80B7
:100090001E0014001180338036003C003980280097
:1000A0002D8027802200638066006C0069807800C4
:1000B0007D8077807200500055805F805A004B80B1
:1000C0004E0044004180C380C600CC00C980D800E7
:1000D000DD80D780D200F000F580FF80FA00EB8051
:1000E000EE00E400E180A000A580AF80AA00BB8004
:1000F000BE00B400B180938096009C009980880077
:100100008D8087808200838186018C01898198019E
:100110009D8197819201B001B581BF81BA01AB8108
:10012000AE01A401A181E001E581EF81EA01FB813B
:10013000FE01F401F181D381D601DC01D981C8012E
:10014000CD81C781C201400145814F814A015B8158
:100150005E0154015181738176017C0179816801CE
:100160006D8167816201238126012C01298138017B
:100170003D8137813201100115811F811A010B81E8
:100180000E0104010181038306030C030983180394
:100190001D8317831203300335833F833A032B8378
:1001A0002E0324032183600365836F836A037B83AB
:1001B0007E0374037183538356035C03598348039E
:1001C0004D8347834203C003C583CF83CA03DB83C8
:1001D000DE03D403D183F383F603FC03F983E8033E
:1001E000ED83E783E203A383A603AC03A983B803EB
:1001F000BD83B783B203900395839F839A038B8358
:100200008E0384038183800285828F828A029B828F
:100210009E0294029182B382B602BC02B982A80205
:10022000AD82A782A202E382E602EC02E982F80232
:10023000FD82F782F202D002D582DF82DA02CB821F
:10024000CE02C402C182438246024C024982580255
:100250005D8257825202700275827F827A026B82BF
:100260006E0264026182200225822F822A023B8272
:100270003E0234023182138216021C0219820802E5
:100280000D820782020200000000230026002900E0
:1002900000000000250028002B00040404040404CE
:1002A0000404020202020202030303030303010225
:1002B00004081020408001020408102001020408F4
:1002C0001020CF087D0F11241FBECFEFD8E0DEBF76
:1002D000CDBF22E0A0E5B1E001C01D92A23AB20775
:1002E000E1F711E0A0E0B1E0EEE9F4E202C0059030
:1002F0000D92A035B107D9F711E0C2E6D1E004C0F4
:100300002197FE010E944110C136D107C9F70E9412
:1003100098090C9442120C940000CF92DF92EF9255
:10032000FF920F931F93CF93DF93DC012091610223
:1003300062E170E080E090E0222301F1209156021A
:10034000223009F0CFC040915D0250915E02C09111
:100350005902D0915A0220915B0230915C02609167
:100360005702653509F071C0BA01635F7F4F2617E8
:10037000370768F46AE070E080E090E0DF91CF91A9
:100380001F910F91FF90EF90DF90CF900895BE01E5
:10039000675F7F4F8D010E5F1F4F9A012F5F3F4FA9
:1003A0009D916B01C40ED51EF6019083233031055B
:1003B00058F17601F2E0EF1AF108F70180818F3FE2
:1003C00069F4319680818F3F49F49D3F39F4260FBF
:1003D000371FF90190839A012E5F3F4F40915B02D6
:1003E00050915C02C9010B964817590718F2A017E3
:1003F000B10741F430935E0220935D0260E070E04B
:10040000CB01BCCFA901C9CF2230310561F4888569
:100410008F3F21F789858F3F09F79D3FF9F69B872D
:1004200023E030E0DBCF2130310561F48F818F3F55
:10043000A9F688858F3F91F69D3F81F69A8722E045
:1004400030E0CCCF30E020E0C9CFBA01645F7F4F0D
:100450002617370708F48ECFBE01685F7F4F8D01E6
:100460000E5F1F4F9A012F5F3F4F9D916B01C40E8E
:10047000D51EF60190832330310528F17601F2E094
:10048000EF1AF108F70180818F3F69F4319680817E
:100490008F3F49F49D3F39F4260F371FF9019083B0
:1004A0009A012E5F3F4F40915B0250915C02C9015F
:1004B0000A964817590708F45DCFA017B10709F449
:1004C00099CFA901CFCF2230310569F78F818F3FB6
:1004D00051F788858F3F39F79D3F29F79A8723E0A9
:1004E00030E0E1CF61E170E080E090E0213009F0A0
:1004F00045CF20915D0230915E02A901485F5F4FB8
:1005000060915B0270915C026417750708F432CF4A
:10051000465051094E3F510508F02CCFE091590249
:10052000F0915A026C91E20FF31F658311968C9142
:10053000868350935E0240935D0260CFEF92FF92FC
:100540000F931F93CF93DF9300D0CDB7DEB78C010D
:100550007A8369837A018091530290915402409189
:1005600051025091520220914E024115510539F02D
:10057000223009F080C08B30910508F083C0CE0195
:1005800001960E948D01C7010E948D018091610238
:10059000882309F45EC0E0915902F0915A02309725
:1005A00009F457C080915602823009F0A4C020910E
:1005B0005B0230915C0280915D0290915E024091FD
:1005C0005702453539F4AC01455F5F4F24173507B5
:1005D00008F43FC00A9628173907D8F18FEF8083B7
:1005E00081838DEF82831382809155028483909161
:1005F000570280915D02953509F062C08C5F85835A
:1006000080915D0290915E020496968380915702DC
:10061000878380915802808789E090E020915D0275
:1006200030915E02820F931FDF01AF01480F591F07
:1006300030E020E0E32FFF274A175B0709F04EC0A8
:10064000DA012C931196EC930296909360028093BA
:100650005F028DE0E5E5F2E0D80101900D928A9508
:10066000E1F7C8010F900F90DF91CF911F910F918B
:10067000FF90EF900895213009F081CF86309105E9
:1006800008F47DCF38EC309355022093560223E0D6
:10069000209357021092580250935A0240935902E5
:1006A00090935C0280935B0210925E0210925D0256
:1006B0001092600210925F0281E0809361025FCF2E
:1006C0008D5F858380915D0290915E020396968393
:1006D00080915702878388E090E0A0CF6D91E62754
:1006E000EE0FFF1FEA57FF4F65917491322F2227BB
:1006F000262737279FCF813009F0ABCF80915D024D
:1007000090915E029C012A5F3F4F40915B025091A5
:100710005C024217530708F49CCF8E3F910508F006
:1007200098CF8FEF8083818380915502828380915F
:100730005D028E5F838380915702853511F480912D
:100740005802848320915D0230915E02A9014B5FC3
:100750005F4FDF01129680E0BD016E1B7F0B6417B7
:10076000750758F0E40FF51F809580832A5F3F4F8F
:100770003093600220935F026CCF9D91890FECCF84
:10078000AF92BF92CF92DF92EF92FF920F931F939F
:10079000CF93DF936C017B018B01040F151FEB01DD
:1007A0005E01AE18BF08C017D10759F06991D60194
:1007B000ED91FC910190F081E02DC6010995892B06
:1007C00079F7C501DF91CF911F910F91FF90EF90C5
:1007D000DF90CF90BF90AF900895FC01538D448D72
:1007E000252F30E0842F90E0821B930B541710F0DC
:1007F000CF96089501970895FC01918D828D9817E9
:1008000061F0A28DAE0FBF2FB11D5D968C91928DC0
:100810009F5F9F73928F90E008958FEF9FEF0895F1
:100820002FB7F8948091AD019091AE01A091AF01E6
:10083000B091B0012FBF8093B9019093BA01A093FA
:10084000BB01B093BC0181EB91E00E94FC0397FFD8
:1008500026C02FB7F8948091AD019091AE01A09180
:10086000AF01B091B0012FBF4091B9015091BA01D1
:100870006091BB017091BC01841B950BA60BB70B5B
:100880004091B5015091B6016091B7017091B801E6
:1008900084179507A607B707B0F28FEF9FEF08956B
:1008A000FC01918D828D981731F0828DE80FF11D3A
:1008B000858D90E008958FEF9FEF0895FC01918D55
:1008C000228D892F90E0805C9F4F821B91098F734E
:1008D0009927089581EB91E00E945E0421E0892B25
:1008E00009F420E0822F089580E090E0892B29F020
:1008F0000E946A0481110C9400000895FC01A48DEB
:10090000A80FB92FB11DA35ABF4F2C91848D90E031
:1009100001968F739927848FA689B7892C93A08914
:10092000B1898C91837080648C93938D848D98139E
:1009300006C00288F389E02D80818F7D8083089531
:10094000EF92FF920F931F93CF93DF93EC0181E01F
:10095000888F9B8D8C8D98131AC0E889F9898081C6
:1009600085FF15C09FB7F894EE89FF896083E889F9
:10097000F98980818370806480839FBF81E090E0EB
:10098000DF91CF911F910F91FF90EF900895F62E78
:100990000B8D10E00F5F1F4F0F731127E02E8C8D12
:1009A0008E110CC00FB607FCFACFE889F989808157
:1009B00085FFF5CFCE010E947E04F1CFEB8DEC0FC9
:1009C000FD2FF11DE35AFF4FF0829FB7F8940B8F74
:1009D000EA89FB8980818062CFCFCF93DF93EC01DE
:1009E000888D8823B9F0AA89BB89E889F9898C9117
:1009F00085FD03C0808186FD0DC00FB607FCF7CFD3
:100A00008C9185FFF2CF808185FFEDCFCE010E94D2
:100A10007E04E9CFDF91CF91089590E0FC01EE587C
:100A2000FF4F2491FC01E255FD4F3491FC01E65645
:100A3000FD4FE491EE23C9F0222339F0233001F178
:100A4000A8F4213019F1223029F1F0E0EE0FFF1F58
:100A5000E057FD4FA591B4918FB7F894EC916111D7
:100A600026C030953E233C938FBF08952730A9F0D0
:100A70002830C9F0243049F7809180008F7D03C071
:100A8000809180008F7780938000DFCF84B58F774F
:100A900084BDDBCF84B58F7DFBCF8091B0008F7795
:100AA0008093B000D2CF8091B0008F7DF9CF3E2BE4
:100AB000DACFCF93DF9390E0FC01E255FD4F249114
:100AC00086569D4FFC0184918823D1F090E0880FD9
:100AD000991FFC01E859FF4FA591B491FC01E05723
:100AE000FD4FC591D49161110EC09FB7F8948C91C0
:100AF000E22FE0958E238C932881E223E8839FBF29
:100B0000DF91CF9108958FB7F894EC91E22BEC939D
:100B10008FBFF6CF3FB7F8948091910190919201E9
:100B2000A0919301B091940126B5A89B05C02F3FD9
:100B300019F00196A11DB11D3FBFBA2FA92F982F03
:100B40008827BC01CD01620F711D811D911D42E0FE
:100B5000660F771F881F991F4A95D1F70895209136
:100B60009701309198012817390771F490919501F8
:100B700080919601981741F0E0919501F0E0E05BDB
:100B8000FE4F808190E008958FEF9FEF08950895C4
:100B9000EF92FF920F931F93CF93DF93DC015C964C
:100BA000ED90FC905D97E114F10479F481E090E020
:100BB00013969C938E93129790E080E0DF91CF91F3
:100BC0001F910F91FF90EF9008955196ED91FC9138
:100BD000529750968C915097982F90950FB75E969C
:100BE0002C915E97122F127021FD6095F894208150
:100BF000112319F1282B2083E7012197F1F728E031
:100C0000462F50E0308160FF1AC0382B3083E70157
:100C10002197F1F7BA0175956795215089F711234E
:100C200081F08081892380830FBF5C968D919C9198
:100C30000197F1F781E090E0C1CF2923DCCF392380
:100C4000E5CF9081892BEFCF2091970130919801CA
:100C50002817390761F4809196012091950190E061
:100C6000805C9F4F821B91098F739927089590E0B4
:100C700080E0089520919701309198012817390755
:100C8000B9F49091950180919601981789F0E091BF
:100C90009501F0E0E05BFE4F80812091950130E00E
:100CA0002F5F3F4F2F7333272093950190E00895D6
:100CB0008FEF9FEF089590E080E008958F929F92CC
:100CC000AF92BF92CF92DF92EF92FF920F931F935A
:100CD000CF93DF93CDB7DEB72D970FB6F894DEBF75
:100CE0000FBECDBF0D831E836B877C874B855C85D4
:100CF0006D817E818FE792E00E94C0030E948A0589
:100D00004B015C0184E6C82ED12CE12CF12C0E9411
:100D10008A05681979098A099B09683E734081052B
:100D20009105A8F321E0C21AD108E108F10888EE84
:100D3000880E83E0981EA11CB11CC114D104E104EB
:100D4000F10429F72D960FB6F894DEBF0FBECDBF84
:100D5000DF91CF911F910F91FF90EF90DF90CF9097
:100D6000BF90AF909F908F900895FC01019000205C
:100D7000E9F73197AF01481B590BBC0181EB91E0BA
:100D80000C94C003CF93DF93EC0188819981009785
:100D900011F00E94E310198218821D821C821B82AE
:100DA0001A82DF91CF910895FC0180819181009793
:100DB00011F00C94E3100895FC0124813581232B5C
:100DC00039F421E0FB018081882349F020E007C04D
:100DD000808191810E94321221E0892BB9F7822F04
:100DE00008950F931F93CF93DF93EC01888199812E
:100DF000009759F02A813B812617370730F081E0B0
:100E0000DF91CF911F910F9108958B016F5F7F4FFD
:100E10000E946C11009759F0998388831B830A8381
:100E20002C813D81232B59F7FC011082E8CF80E013
:100E3000E7CFEF92FF920F931F93CF93DF9361154C
:100E4000710541F480E0DF91CF911F910F91FF90E8
:100E5000EF90089541155105B1F07B01EC010C8133
:100E60001D81040F151FB8010E94F106882351F35C
:100E7000288139818C819D81B701820F931F0E9447
:100E80003B121D830C8381E0DECFEF92FF920F9324
:100E90001F93CF93DF93EC017B018A01BA010E947B
:100EA000F10681110BC0CE010E94C206CE01DF9176
:100EB000CF911F910F91FF90EF9008951D830C83A8
:100EC000B701888199810E943B12F0CFFB0101900C
:100ED0000020E9F73197AF01461B570B0C944507EB
:100EE0001F920F920FB60F9211242F933F934F939F
:100EF0005F936F937F938F939F93AF93BF93EF9382
:100F0000FF9381EB91E00E947E04FF91EF91BF91EE
:100F1000AF919F918F917F916F915F914F913F9191
:100F20002F910F900FBE0F901F9018951F920F9248
:100F30000FB60F9211242F938F939F93EF93FF93EC
:100F4000E091C101F091C2018081E091C701F0916F
:100F5000C80182FD1BC090818091CA018F5F8F7391
:100F60002091CB01821741F0E091CA01F0E0EF54EB
:100F7000FE4F958F8093CA01FF91EF919F918F91C2
:100F80002F910F900FBE0F901F9018958081F4CF76
:100F90001F920F920FB60F9211242F933F938F93AE
:100FA0009F93AF93BF938091AD019091AE01A091BB
:100FB000AF01B091B0013091900123E0230F2D37A4
:100FC00058F50196A11DB11D209390018093AD01AC
:100FD0009093AE01A093AF01B093B00180919101C5
:100FE00090919201A0919301B09194010196A11D5D
:100FF000B11D8093910190939201A0939301B093BE
:101000009401BF91AF919F918F913F912F910F903C
:101010000FBE0F901F90189526E8230F0296A11D72
:10102000B11DD2CF1F920F920FB60F9211242F93A2
:101030003F934F935F936F937F938F939F93AF9360
:10104000BF93EF93FF93E0919701F0919801309750
:1010500049F0A685B7858585968D91FF14C09C9132
:101060008923A1F4FF91EF91BF91AF919F918F914F
:101070007F916F915F914F913F912F910F900FBE94
:101080000F901F9018959C91892361F7A389B489CB
:101090009C918589809589238C938689978901976E
:1010A000F1F7608D718DA685B785558538E020E014
:1010B000CB010197F1F7822F90E095958795282F26
:1010C0004C91452309F02068315091F7868D81FDC0
:1010D00020958091960190E001968F739927309129
:1010E0009501381799F0A0919601B0E0A05BBE4F32
:1010F0002C9380939601828D938D0197F1F7A389AC
:10110000B4898C919589892B8C93ACCF868D816025
:10111000868FF1CFCF92DF92EF92FF920F931F93C2
:10112000E82FF92F05C0015011092109310961F19A
:10113000908196239417B9F305C001501109210934
:10114000310911F1908196239413F7CFC12CD12C42
:10115000E12CF12C0AC08FEFC81AD80AE80AF80A65
:101160000C151D052E053F0579F080818623841717
:1011700091F36C2D7D2D8E2D9F2D1F910F91FF9042
:10118000EF90DF90CF90089560E070E080E090E015
:101190001F910F91FF90EF90DF90CF9008951092E4
:1011A000B4011092B30188EE93E0A0E0B0E0809328
:1011B000B5019093B601A093B701B093B8012AE0AE
:1011C00031E03093B2012093B10125EC30E030934F
:1011D000BE012093BD0124EC30E03093C001209388
:1011E000BF0120EC30E03093C2012093C10121EC1B
:1011F00030E03093C4012093C30122EC30E03093FF
:10120000C6012093C50126EC30E03093C80120933D
:10121000C7011092CA011092CB011092CC0110921A
:10122000CD011092820210928102809383029093EA
:101230008402A0938502B09386028CE191E09093A2
:10124000800280937F021092960210929502109273
:1012500098021092970210929A021092990210929C
:101260009C0210929B0260919D026E7F6D7F609345
:101270009D026695617081E0682783E00E940D05FC
:1012800061E083E00E945905E1EBF2E0E491E09334
:101290008F02EDE9F2E0E491F0E0EE0FFF1FE0577E
:1012A000FD4F85919491909391028093900260E01C
:1012B00082E00E94590580919D0281FD04C061E099
:1012C00082E00E940D0582E080938B02E0EBF2E069
:1012D000E491E0938C02ECE9F2E0E491F0E0EE0FAF
:1012E000FF1FEA57FD4F8591949190938E02809352
:1012F0008D0282E090E090934F0280934E0280E056
:1013000091E00E9447109093520280935102892BE2
:1013100049F080E091E0909354028093530281E081
:101320008093500281E08093610280937A02089555
:10133000CF93DF93CDB7DEB7CF5ED1090FB6F89468
:10134000DEBF0FBECDBF789484B5826084BD84B506
:10135000816084BD85B5826085BD85B5816085BDB0
:1013600080916E00816080936E0010928100809168
:1013700081008260809381008091810081608093F0
:101380008100809180008160809380008091B10015
:1013900084608093B1008091B00081608093B00040
:1013A00080917A00846080937A0080917A008260D4
:1013B00080937A0080917A00816080937A00809196
:1013C0007A00806880937A001092C10010929A028D
:1013D000109299021092980210929702109296021F
:1013E0001092950282E490E090939C0280939B027D
:1013F00090918B02963108F047C02FE030E0309397
:1014000096022093950220E430E0309398022093D6
:10141000970227E230E030939A02209399022091BC
:10142000680084E0983048F031E09E3008F430E005
:1014300081E001C0880F3A95EAF7822B809368001B
:101440002DE630E0983050F02BE630E09E3030F062
:101450002CE630E0963110F030E020E0309393023B
:1014600020939202292F30E0983008F0DBC081E011
:1014700001C0880F9A95EAF78093940280919B02AD
:1014800090919C020197F1F78091990290919A02B4
:10149000892B49F1E0919701F091980182E0EF37B3
:1014A000F80709F1309739F0A389B4899C918589AF
:1014B000809589238C9380919D028E7F80939D02DD
:1014C00010929601109295018FE792E09093980107
:1014D00080939701E0919202F09193028081909124
:1014E0009402892B808361E087E00E94590560E0C7
:1014F00086E00E945905E091C101F091C20182E0AD
:101500008083E091BD01F091BE011082E091BF01A6
:10151000F091C00180E180831092C901E091C50182
:10152000F091C60186E08083E091C301F091C4018F
:10153000808180618083E091C301F091C40180814A
:1015400088608083E091C301F091C401808180684C
:101550008083E091C301F091C40180818F7D8083FD
:1015600080E091E00E94471022E030E030934F028B
:1015700020934E0221E020935002909352028093D8
:10158000510280E091E090935402809353022093A3
:10159000610220937A0280E091E0A0E0B0E08093C5
:1015A000A9019093AA01A093AB01B093AC018AE288
:1015B00091E00E94B50680E391E00E94B50648ECF8
:1015C000442E512C612C712CDE0111965D01CE53FD
:1015D000DF4F19821882C25CD040CC53DF4F198292
:1015E0001882C45CD040CA53DF4F19821882C65C8F
:1015F000D04062E371E0CE018E539F4F0E94660798
:101600000E94100497FD1BC083329105C1F08983AD
:101610001A8241E050E0B501CE018E539F4F0E94E7
:101620001907EECF9E3040F42850310981E001C007
:10163000880F2A95EAF720CF2E503109F7CFCA53E9
:10164000DF4F88819981C65CD040009709F45AC267
:10165000CE53DF4FE881F981C25CD040309709F466
:1016600051C22081203409F04DC28230910508F426
:10167000AEC19180029709F4ABC10281002E000C2B
:10168000110B0D52110933E0C32ED12C033011057B
:1016900018F0680103E010E0C454DF4F198218828B
:1016A000CC5BD040C254DF4F19821882CE5BD04051
:1016B000C054DF4F19821882C05CD04062E371E0F1
:1016C000CE0184549F4F0E946607CA53DF4FE880C3
:1016D000F980C65CD0400E151F0588F5CE14DF04D6
:1016E00008F47601CE53DF4FE881F981C25CD04027
:1016F000EE0DFF1DD0801082CE53DF4F68817981BF
:10170000C25CD040600F711F6115710509F462C1A0
:10171000FB0101900020E9F73197AF01461B570B01
:10172000CE0184549F4F0E944507CE53DF4F8881DE
:101730009981C25CD040E80EF91EF701D082FDE429
:101740009F1609F44DC185E59812D7C18091A80173
:10175000C090A601D090A701811140C081E0809384
:10176000A80161E087E00E940D0583E290E0019707
:10177000F1F760E087E00E940D05E4EBF2E0649190
:10178000E0EAF2E0E491F0E0EE0FFF1FEA57FD4FD0
:101790008591949100E412E42FE030E0462F0E94FE
:1017A0008A089B01AC01211531054105510529F03D
:1017B0002F5F3F4F4F4F5F4F5F70A4E5B1E00E9436
:1017C000CE0F20E23EE440E050E00E941F1069018D
:1017D0003093A7012093A6011092A801CA54DF4FAD
:1017E00019821882C65BD040C854DF4F1982188214
:1017F000C85BD040C654DF4F19821882CA5BD04004
:101800006BE471E0CE018A549F4F0E946607C05579
:10181000DF4F19821882C05BD040CE54DF4F19824F
:101820001882C25BD040CC54DF4F19821882C45B4F
:10183000D0406DE471E0CE0180559F4F0E94660755
:10184000CC55DF4F19821882C45AD040CA55DF4F99
:1018500019821882C65AD040C855DF4F19821882A3
:10186000C85AD040CA54DF4F68817981C65BD040E6
:101870006115710559F0C654DF4F48815981CA5B23
:10188000D040CE018C559F4F0E9445074AE0B501DC
:10189000C6010E94990FF50101900020E9F73197E8
:1018A000AF014A195B09B501CE018C559F4F0E94CB
:1018B0001907811105C0CE018C559F4F0E94C206A9
:1018C000CC54DF4F48815981C45BD040C055DF4FB5
:1018D00068817981C05BD040CE018C559F4F0E94BA
:1018E0001907811105C0CE018C559F4F0E94C20679
:1018F000C655DF4F19821882CA5AD040C455DF4FEF
:1019000019821882CC5AD040C255DF4F19821882F2
:10191000CE5AD040CC55DF4F68817981C45AD0402F
:101920006115710559F0C855DF4F48815981C85A72
:10193000D040CE0186559F4F0E944507CE018C5561
:101940009F4F0E94D4060D2C000CEE08FF08F7FEF6
:10195000B9C26DE281EB91E00E94A00422273327F7
:10196000A9012C193D094E095F0919A28E010F5DCD
:101970001F4F9AE0C92ED12CE12CF12CCA01B901DC
:10198000A70196010E941F10605DD8016E938D0122
:10199000211531054105510589F70115110519F08A
:1019A000C8010E94B50680E391E00E94B506CE0111
:1019B00086559F4F0E94D406CE0180559F4F0E94AE
:1019C000D406CE018A549F4F0E94D40696C0912C13
:1019D00000E054CECE0184549F4F0E94C206A5CE93
:1019E00063E371E0CE0184549F4F0E94DC0688239C
:1019F00009F49AC08091A9019091AA01A091AB012C
:101A0000B091AC019C5FAF4FBF4FC851DF4F88838F
:101A10009983AA83BB83C85ED040AE0148515F4F13
:101A200068E870E0CE0186579F4F0E949E028DE0CD
:101A3000FE01E657FF4FA9E9B1E001900D928A95AA
:101A4000E1F7C0909901D0909A01E0909B01F0904D
:101A50009C0100919D0110919E0120919F01309168
:101A6000A0014091A1015091A2016091A301709148
:101A7000A4018091A5010E945E068091A901909128
:101A8000AA01A091AB01B091AC01C451DF4F888392
:101A90009983AA83BB83CC5ED040AE0144515F4F93
:101AA0006AE870E0CE0189569F4F0E949E028DE049
:101AB000FE01E956FF4FA9E9B1E001900D928A9528
:101AC000E1F7C0909901D0909A01E0909B01F090CD
:101AD0009C0100919D0110919E0120919F013091E8
:101AE000A0014091A1015091A2016091A3017091C8
:101AF000A4018091A5010E945E06CE0184549F4FEF
:101B00000E94D406CE018E539F4F0E94D40680E0DF
:101B100090E0892B09F45BCD0E946A04882309F4C4
:101B200053CD0E94000050CD66E371E0CE01845495
:101B30009F4F0E94DC06882309F462C08091A901AE
:101B40009091AA01A091AB01B091AC01C052DF4FBE
:101B500088839983AA83BB83C05ED040AE01405284
:101B60005F4F68E870E0CE0180599F4F0E949E024F
:101B70008DE0FE01E059FF4FA9E9B1E001900D921F
:101B80008A95E1F7C0909901D0909A01E0909B016D
:101B9000F0909C0100919D0110919E0120919F0168
:101BA0003091A0014091A1015091A2016091A30147
:101BB0007091A4018091A5010E945E068091A90107
:101BC0009091AA01A091AB01B091AC019C5FAF4F85
:101BD000BF4FCC51DF4F88839983AA83BB83C45EF8
:101BE000D040AE014C515F4F6AE870E0CE0183589F
:101BF0009F4F0E949E028DE0FE01E358FF4F5BCF96
:101C000069E371E0CE0184549F4F0E94DC06882373
:101C100009F44FC0C852DF4F188219821A821B8202
:101C2000C85DD040AE0148525F4F68E870E0CE0119
:101C30008A5A9F4F0E949E028DE0FE01EA5AFF4F92
:101C4000A9E9B1E001900D928A95E1F7C090990160
:101C5000D0909A01E0909B01F0909C0100919D0131
:101C600010919E0120919F013091A0014091A1010E
:101C70005091A2016091A3017091A4018091A501EE
:101C80000E945E06C452DF4F188219821A821B829C
:101C9000CC5DD040AE0144525F4F6AE870E0CE01A7
:101CA0008D599F4F0E949E028DE0FE01ED59FF4F1E
:101CB00002CF6CE371E0CE0184549F4F0E94DC069A
:101CC000882309F45DC08091A9019091AA01A09197
:101CD000AB01B091AC01C053DF4F88839983AA83D5
:101CE000BB83C05DD040AE0140535F4F68E870E0F9
:101CF000CE01CC960E949E028DE0FE01FC96A9E9E1
:101D0000B1E001900D928A95E1F7C0909901D090D1
:101D10009A01E0909B01F0909C0100919D0110912F
:101D20009E0120919F013091A0014091A10150910D
:101D3000A2016091A3017091A4018091A5010E946C
:101D40005E068091A9019091AA01A091AB01B0918A
:101D5000AC01CC52DF4F88839983AA83BB83C45DD7
:101D6000D040AE014C525F4F6AE870E0CE01875B15
:101D70009F4F0E949E028DE0FE01E75BFF4F9BCECE
:101D80006FE371E0CE0184549F4F0E94DC068823EC
:101D900009F461C08091A9019091AA01A091AB01C1
:101DA000B091AC019C5FAF4FBF4FC853DF4F8883EA
:101DB0009983AA83BB83C85CD040AE0148535F4F70
:101DC00068E870E0CE0182960E949E028DE0FE01DE
:101DD000B296A9E9B1E001900D928A95E1F7C09021
:101DE0009901D0909A01E0909B01F0909C010091A4
:101DF0009D0110919E0120919F013091A001409181
:101E0000A1015091A2016091A3017091A401809160
:101E1000A5010E945E068091A9019091AA01A0915E
:101E2000AB01B091AC019C5FAF4FBF4FC453DF4FCC
:101E300088839983AA83BB83CC5CD040AE01445392
:101E40005F4F6AE870E0CE018F960E949E028DE09F
:101E5000FE01BF9630CE62E471E0CE0184549F4F04
:101E60000E94DC06882349F04092A9015092AA0101
:101E70006092AB017092AC0140CE65E471E0CE019E
:101E800084549F4F0E94DC06882369F080E091E033
:101E9000A0E0B0E08093A9019093AA01A093AB01C8
:101EA000B093AC012ACE68E471E0CE0184549F4F18
:101EB0000E94DC06882309F420CE8CE291E0A0E0A9
:101EC000B0E0E8CFA701960119A28E010F5D1F4F68
:101ED0008AE0C82ED12CE12CF12CCA01B901A7014E
:101EE00096010E941F10605DF80162938F01211519
:101EF00031054105510589F750CD8CE191E0909372
:101F0000800280937F0280919701909198018F5772
:101F1000924071F4E0919202F0919302908180914D
:101F200094028095892380831092980110929701E2
:101F30000895BB274A3031F4992322F4BDE29095ED
:101F400081959F4F0C94A50FBB27FB015527AA270E
:101F5000880F991FAA1FA41710F0A41B8395505136
:101F6000B9F7A05DAA3308F0A95DA193009779F7AE
:101F7000B111B1931192CB010C94BE0FDC01FC01A5
:101F8000672F71917723E1F7329704C07C916D93AD
:101F900070836291AE17BF07C8F308950E941010B6
:101FA000A59F900DB49F900DA49F800D911D1124AD
:101FB00008952F923F924F925F926F927F928F92ED
:101FC0009F92AF92BF92CF92DF92EF92FF920F93C8
:101FD0001F93CF93DF93CDB7DEB7CA1BDB0B0FB6D2
:101FE000F894DEBF0FBECDBF09942A88398848888F
:101FF0005F846E847D848C849B84AA84B984C88425
:10200000DF80EE80FD800C811B81AA81B981CE0F1B
:10201000D11D0FB6F894DEBF0FBECDBFED01089500
:10202000A29FB001B39FC001A39F700D811D112419
:10203000911DB29F700D811D1124911D0895A1E283
:102040001A2EAA1BBB1BFD010DC0AA1FBB1FEE1F32
:10205000FF1FA217B307E407F50720F0A21BB30B7D
:10206000E40BF50B661F771F881F991F1A9469F7F9
:1020700060957095809590959B01AC01BD01CF0155
:102080000895EE0FFF1F0590F491E02D09940F9332
:102090001F93CF93DF938230910510F482E090E09C
:1020A000E091A002F091A10230E020E0B0E0A0E0D9
:1020B000309799F42115310509F44AC0281B390BD2
:1020C00024303105D8F58A819B816115710589F12C
:1020D000FB0193838283FE0111C040815181028103
:1020E000138148175907E0F04817590799F41097DA
:1020F00061F012960C93129713961C933296CF01AF
:10210000DF91CF911F910F9108950093A00210933A
:10211000A102F4CF2115310551F04217530738F0D1
:10212000A901DB019A01BD01DF01F801C1CFEF0177
:10213000F9CF9093A1028093A002CDCFFE01E20FD0
:10214000F31F819391932250310939832883D7CF8C
:1021500020919E0230919F02232B41F42091020195
:102160003091030130939F0220939E022091000141
:10217000309101012115310541F42DB73EB7409151
:10218000040150910501241B350BE0919E02F09152
:102190009F02E217F307A0F42E1B3F0B2817390705
:1021A00078F0AC014E5F5F4F2417350748F04E0FB3
:1021B0005F1F50939F0240939E02819391939FCF04
:1021C000F0E0E0E09CCFCF93DF930097E9F0FC01D3
:1021D000329713821282A091A002B091A102ED0168
:1021E00030E020E01097A1F420813181820F931F0D
:1021F00020919E0230919F022817390709F061C093
:10220000F0939F02E0939E02DF91CF910895EA013F
:10221000CE17DF07E8F54A815B819E014115510524
:10222000B1F7E901FB83EA8349915991C40FD51FA6
:10223000EC17FD0761F4808191810296840F951F50
:10224000E90199838883828193819B838A83F0E06B
:10225000E0E012968D919C9113970097B9F52D911E
:102260003C911197CD010296820F931F20919E02FF
:1022700030919F022817390739F6309751F510929F
:10228000A1021092A002B0939F02A0939E02BCCF25
:10229000D383C28340815181840F951FC817D9070A
:1022A00061F44E5F5F4F88819981480F591F5183B8
:1022B00040838A819B81938382832115310509F0B4
:1022C000B0CFF093A102E093A0029ECFFD01DC010C
:1022D000C0CF13821282D7CFB0E0A0E0E2E7F1E1F5
:1022E0000C94DB0F8C01009751F4CB010E94471036
:1022F0008C01C801CDB7DEB7E0E10C94F70FFC010B
:10230000E60FF71F9C0122503109E217F30708F48A
:102310009DC0D901CD91DC911197C617D70798F0D0
:10232000C530D10530F3CE0104978617970708F31F
:10233000C61BD70B2297C193D1936D937C93CF018A
:102340000E94E310D6CF5B01AC1ABD0A4C018C0E83
:102350009D1EA091A002B091A102512C412CF12C04
:10236000E12C109731F580919E0290919F02881583
:10237000990509F05CC04616570608F058C08091D0
:10238000000190910101009741F48DB79EB74091F3
:10239000040150910501841B950BE817F90708F01B
:1023A00055C0F0939F02E0939E02F9017183608310
:1023B000A0CF8D919C91119712966C9012971396C5
:1023C0007C901397A815B90559F56C0142E0C40E2D
:1023D000D11CCA14DB0420F1AC014A195B09DA01F3
:1023E0001296159780F06282738251834083D901DF
:1023F0006D937C93E114F10471F0D7011396FC9373
:10240000EE93129776CF22968C0F9D1FF901918340
:102410008083F301EFCFF093A102E093A00269CF94
:102420004816590608F42C017D01D3019ACFCB013F
:102430000E9447107C01009749F0AE01B8010E944C
:102440002912C8010E94E310870153CF10E000E079
:1024500050CFFB01DC0102C001900D924150504071
:10246000D8F70895FB01DC018D91019080190110CE
:10247000D9F3990B0895FB01DC0101900D92002026
:10248000E1F7089511E0C2E6D1E004C0FE010E9428
:1024900041102196C336D107C9F7F894FFCF000049
:1024A000A202800000000000A004C003ED03ED04C0
:1024B0005E04FC03500400000000C805C0035B0676
:1024C000C70524063A06AF055374617274000D0AFD
:1024D000004D46004D4200535400545200544C00ED
:0E24E000534C00534D005348004000230000B1
:107E0000112484B714BE81FFF0D085E080938100F7
:107E100082E08093C00088E18093C10086E0809377
:107E2000C20080E18093C4008EE0C9D0259A86E02C
:107E300020E33CEF91E0309385002093840096BBD3
:107E4000B09BFECF1D9AA8958150A9F7CC24DD24C4
:107E500088248394B5E0AB2EA1E19A2EF3E0BF2EE7
:107E6000A2D0813461F49FD0082FAFD0023811F036
:107E7000013811F484E001C083E08DD089C08234E0
:107E800011F484E103C0853419F485E0A6D080C0E4
:107E9000853579F488D0E82EFF2485D0082F10E0AE
:107EA000102F00270E291F29000F111F8ED06801E7
:107EB0006FC0863521F484E090D080E0DECF843638
:107EC00009F040C070D06FD0082F6DD080E0C81688
:107ED00080E7D80618F4F601B7BEE895C0E0D1E017
:107EE00062D089930C17E1F7F0E0CF16F0E7DF06D8
:107EF00018F0F601B7BEE89568D007B600FCFDCFD4
:107F0000A601A0E0B1E02C9130E011968C91119780
:107F100090E0982F8827822B932B1296FA010C0160
:107F200087BEE89511244E5F5F4FF1E0A038BF0790
:107F300051F7F601A7BEE89507B600FCFDCF97BE46
:107F4000E89526C08437B1F42ED02DD0F82E2BD052
:107F50003CD0F601EF2C8F010F5F1F4F84911BD097
:107F6000EA94F801C1F70894C11CD11CFA94CF0C13
:107F7000D11C0EC0853739F428D08EE10CD085E9AC
:107F80000AD08FE07ACF813511F488E018D01DD067
:107F900080E101D065CF982F8091C00085FFFCCF94
:107FA0009093C60008958091C00087FFFCCF809118
:107FB000C00084FD01C0A8958091C6000895E0E648
:107FC000F0E098E1908380830895EDDF803219F02E
:107FD00088E0F5DFFFCF84E1DECF1F93182FE3DFCA
:107FE0001150E9F7F2DF1F91089580E0E8DFEE27F6
:047FF000FF270994CA
:027FFE00040479
:00000001FF
